:020000040800F2
:10000000200900204D010008C924000891230008A0
:10001000C524000881020008C12C0008000000006F
:100020000000000000000000000000002D27000874
:10003000CD09000800000000CD2400083127000889
:1000400067010008670100086701000867010008F0
:1000500067010008670100086701000867010008E0
:1000600067010008670100086701000867010008D0
:1000700067010008670100086701000867010008C0
:1000800067010008670100086701000867010008B0
:100090000000000067010008670100086701000810
:1000A0006701000867010008670100086701000890
:1000B0006701000867010008670100086701000880
:1000C0006701000867010008670100086701000870
:1000D0006701000867010008670100086701000860
:1000E0006701000867010008670100086701000850
:1000F0006701000800000000000000006701000820
:10010000670100086701000867010008670100082F
:10011000670100086701000867010008670100081F
:10012000670100086701000867010008670100080F
:100130006701000867010008DFF80CD000F08EF8B6
:1001400000480047E52C00082009002006488047A9
:1001500006480047FEE7FEE7FEE7FEE7FEE7FEE7AC
:10016000FEE7FEE7FEE7FEE7352700083901000855
:100170002DE9F05F0546002092469B4688460646DC
:10018000814640241BE0284641464746224600F06F
:1001900054F853465A46C01A914110D31146184696
:1001A000224600F03BF82D1A67EB01084F46224625
:1001B0000120002100F032F817EB00094E41201E0B
:1001C000A4F10104DFDC484631462A464346BDE837
:1001D000F09F00000649074A0868504343F239027D
:1001E00010440860400870470149086070470000EB
:1001F000000000206D4EC641D2B201E000F8012B94
:10020000491EFBD270470022F6E710B513460A4696
:1002100004461946FFF7F0FF204610BD202A04DBF4
:10022000203A00FA02F1002070479140C2F1200309
:1002300020FA03F3194390407047202A04DB203A48
:1002400021FA02F00021704721FA02F3D040C2F1F6
:10025000200291400843194670470000064C074DA4
:1002600006E0E06840F0010394E807009847103486
:10027000AC42F6D3FFF764FF54340008743400082E
:10028000FEE700002DE9F041ADF5027D15468846F8
:1002900007464FF090401021002200F081FC40F210
:1002A0002046032041F288340DF107010DF20722A8
:1002B0000123C2F200068DF807000094304601F0D9
:1002C00051FC380C0DF107010DF2072201230094B7
:1002D0008DF80700304601F045FC380A0DF10701A2
:1002E0000DF20722012300948DF80700304601F03B
:1002F00039FC0DF107010DF20722304601238DF87C
:100300000770009401F02EFCABB20DF107013046EE
:100310004246009401F026FC4FF09040102101224B
:1003200000F03EFC0DF5027DBDE8F0812DE9F04FB7
:1003300083B0FFF74FFF40F218050446C2F20005F4
:100340006868013068600FF25C5002F02DFD43F2E6
:1003500060306968C0F6000002F026FD4FF0904062
:1003600010210022002600F01BFC40F220459F20B7
:1003700041F288370DF10B010DF10A0201238DF8CE
:100380000860ADF80660C2F200058DF80B0000971A
:10039000284601F0E7FB0DF10B010DF1060228469E
:1003A00003238DF80B60009701F0DCFB43F2A330D0
:1003B0009DF806109DF807209DF80830C0F6000053
:1003C00002F0F2FC4FF090401021012200F0E8FB17
:1003D00040F22027C2F20007A019B91900F10F025C
:1003E000B8551036CA7300F10E02B6F5807F8A73D5
:1003F00000F10D024A7300F10C020A7300F10B02C6
:10040000CA7200F10A028A7200F109024A7200F10E
:1004100008020A7200F10702CA7100F106028A712D
:1004200000F105024A7100F104020A7100F10302B1
:10043000CA7000F1020200F101008A704870CBD14D
:100440000FF2A04002F008FF4CF6CD4A43F24A48B2
:1004500043F2514943F24C460024CCF6CC4AC0F654
:100460000008C0F60009C0F6000607E0404602F0AA
:10047000F3FEB5B9484602F097FC12E004F003051C
:100480001CB115B9202002F0E1FEE0B2A0FB0A1277
:10049000510901EB8101A0EBC1000028E6D0002D3D
:1004A000E8D0395D304602F07FFC0134B4F5807F3E
:1004B000E4D140F220004FF48071C2F20000FFF757
:1004C000A2FE4FF09040102100224FF0000900F0F2
:1004D00067FB40F2204406200DF1060A0DF10B08DF
:1004E00041F288360123C2F200048DF8060051461D
:1004F00042460096204601F035FB4FF09040102117
:10050000012200F04DFB4FF090401021002200F03E
:1005100047FB20200DF106010DF10B02012300968F
:100520008DF80600204601F01DFB0DF106010DF1CE
:100530000B02204601238DF80690009601F012FB75
:100540000DF106010DF10B02204601238DF80690F6
:10055000009601F007FB0DF106010DF10B0220469C
:1005600001238DF80690009601F0FCFA4FF09040C0
:100570001021012200F014FB05250DF10A0700BF30
:100580004FF09040102100228DF80A9000F008FBF7
:1005900020465146424601238DF80650009601F050
:1005A000E1FA204651463A4601238DF8069000961E
:1005B00001F0D8FA4FF090401021012200F0F0FA3B
:1005C0009DF80A00C007DBD14FF0904010210022B7
:1005D000002600F0E5FA40F2204406200DF1060561
:1005E0000DF10B0841F288370123C2F200048DF8A7
:1005F0000600294642460097204601F0B3FA4FF024
:1006000090401021012200F0CBFA4FF0050A0DF1C5
:100610000A0900BF4FF09040102100228DF80A60B7
:1006200000F0BEFA20462946424601238DF806A076
:10063000009701F097FA204629464A4601238DF893
:100640000660009701F08EFA4FF0904010210122D1
:1006500000F0A6FA9DF80A00C007DBD140F2202185
:1006600000204FF480720026C2F2000100F05AF917
:1006700040F220444FF0050A41F288370DF106059B
:100680000DF10B090DF10A08C2F200044FF0904081
:10069000102100228DF80A6000F082FA20462946D7
:1006A0004A4601238DF806A0009701F05BFA204628
:1006B0002946424601238DF80660009701F052FA60
:1006C0004FF090401021012200F06AFA9DF80A00D4
:1006D000C007DBD140F2200900204FF480724FF0B8
:1006E000000AC2F200094946FFF7CCFD40F220445F
:1006F0004FF0050841F2883B0DF106060DF10B079E
:100700000DF10A05C2F200044FF0904010210022C2
:100710008DF80AA000F044FA204631463A460123FB
:100720008DF80680CDF800B001F01CFA2046314665
:100730002A4601238DF806A0CDF800B001F012FA88
:100740004FF090401021012200F02AFA9DF80A0093
:10075000C007D9D143F20E40C0F6000002F07CFD84
:1007600043F24A4843F2514A43F24C444CF6CD47D7
:100770000025C0F60008C0F6000AC0F60004CCF65A
:10078000CC4707E0404602F067FDB6B9504602F09C
:100790000BFB12E005F003061DB116B9202002F094
:1007A00055FDE8B2A0FB0712510901EB8101A0EB56
:1007B000C1000028E6D0002EE8D019F80510204628
:1007C00002F0F2FA0135B5F5807FE3D143F2CE3085
:1007D000C0F6000002F040FD40F2180440F220266E
:1007E0000020C2F20004C2F20006315C19F80020B9
:1007F0008A4244D109EB0001321853784F789F4266
:100800003DD193788F789F4239D1D378CF789F426A
:1008100035D113790F799F4231D153794F799F4266
:100820002DD193798F799F4229D1D379CF799F4266
:1008300025D1137A0F7A9F4221D1537A4F7A9F4262
:100840001DD1937A8F7A9F4219D1D37ACF7A9F4262
:1008500015D1137B0F7B9F4211D1537B4F7B9F425E
:100860000DD1937B8F7B9F4209D1D27BC97B914273
:1008700005D11030B0F5807FB7D1216802E0206843
:10088000411C216043F2BB30C0F6000002F08CFA3C
:1008900043F2C1306168C0F6000002F085FA03B08F
:1008A000BDE8F08F0D0A2D2D2D2D2D2D2D2D2D2D4B
:1008B0002D2D2D2D2D2D2D2D2D2D2D2D2D2D2D2D68
:1008C0002D2D2D2D2D2D2D2D2D2D2D2D2D2D2D2D58
:1008D0002D2D2D2D2D2D2D2D2D2D2D2D2D2D2D2D48
:1008E0002D2D2D002D2D2D2D2D2D2D2D2D2D2D2D65
:1008F0002D2D2D2D2D2D2D2D2D2D2D2D5772697436
:100900006520466C6173682D2D2D2D2D2D2D2D2DDF
:100910002D2D2D2D2D2D2D2D2D2D2D2D2D2D2D0D27
:10092000000000002DE9F041ADF5027D1546884636
:1009300007464FF090401021002200F031F940F2BC
:100940002046022041F288340DF107010DF2072202
:100950000123C2F200068DF807000094304601F032
:1009600001F9380C0DF107010DF207220123009463
:100970008DF80700304601F0F5F8380A0DF107014F
:100980000DF20722012300948DF80700304601F094
:10099000E9F80DF107010DF20722304601238DF829
:1009A0000770009401F0DEF8ABB20DF1070230469B
:1009B0004146009401F0D6F84FF0904010210122FA
:1009C00000F0EEF80DF5027DBDE8F0817047000003
:1009D000EFF3108072B600BFFEE700002DE9F04F84
:1009E00082B00E68002E00F0CF8040F600024FF07B
:1009F000010C4FF0000E01274FF0000B4FF00009E3
:100A0000C4F6000290424FF0070208BF0222009293
:100A1000A7F101080CFA08F216EA020300F0A78019
:100A2000D1F804A00193BAF1120F61D80CFA0AF4BC
:100A300014F0061F5CD0032386684FEA490503FAC9
:100A40000BF4CB68A6436FEA040C03FA0BF33343B1
:100A50008360CAF30013466803FA08F326EA020229
:100A60001A434260C2688B6802EA0C02AB401A4328
:100A7000C2604AF01002122A12D16FF003040EF085
:100A80001C020F2304EA580493400444266A26EA11
:100A900003030E6906FA02F21A432262D1F804A097
:100AA00002680AF00303AB4002EA0C024FF0010CAB
:100AB0001A4302605FEACA02019D58D508244FEA32
:100AC00098060EF00C020723B0F1904FC4F2010417
:100AD00003FA02F354F8264024EA03080FD040F248
:100AE0000043009CC4F60003984208BF012407E0BD
:100AF00003225D4602FA0BF26FEA020CB2E7002411
:100B000004FA02F2082342EA0802C4F2010343F89D
:100B1000262040F60002C5F600029046D2F880205A
:100B20004E6842EA0503F40358BF22EA0503C8F8F9
:100B30008030B403D8F8842042EA050358BF22EA83
:100B40000503C8F88430F402D8F8002042EA05030F
:100B500058BF22EA0503C8F80030B602D8F80420CE
:100B600042EA050358BF22EA0503C8F804300E68BC
:100B70000EF1040E0BF1020B09F1010936FA07F22E
:100B800007F101077FF444AF02B0BDE8F08F000029
:100B9000426902EA0103914341EA034181617047DE
:100BA0001823002A08BF2823C150704740F218506C
:100BB000C2F200000068704740F2080040F218518D
:100BC000C2F20000C2F2000140680A6810440860E6
:100BD0007047000080B5032000F066F800F07CFA52
:100BE00040F21001C2F2000108600F2000F008F886
:100BF00000281CBF012080BD00F026F8002080BD29
:100C000070B540F208060446C2F200067068C0B132
:100C100000F062FA71684FF47A72B2FBF1F1B0FB46
:100C2000F1F001F005FA01250F2C08D838B94FF082
:100C3000FF3021460022002500F008F834602846E5
:100C400070BD0125284670BD7047000010B500F04A
:100C50000F034EF60C5E00F1604CB0F1FF3FA3F1C4
:100C60000403CEF2000E734403F10C04C8BF0CF56C
:100C70006444DEF800004FF0FF3CC0F30220C31EC6
:100C800080F0070038BF0023042828BF04200CFA96
:100C900000F021EA00000CFA03F1984022EA010179
:100CA00008430001207010BD4EF60C514FF6FF03B3
:100CB000CEF200010A681A4060F30A2242F0806016
:100CC00040F0FD700860704740F20040C5F600003B
:100CD000006800F4C060704740F20040C5F60000B4
:100CE000016841F48071016070470000F0B581B087
:100CF000044680788826C5F60006C0073BD0FFF77B
:100D0000EBFFFFF753FF0546D6F87803C00509D47B
:100D1000FFF74CFF401B0228F6D903202168CA07C1
:100D20002DD133E0B168606B01F4407181421DD078
:100D3000B168B26842F48032B260B26822F48032A4
:100D4000B26021F4407289070146B2600ED5FFF708
:100D50002DFF054641F28837B068800705D4FFF7BC
:100D600025FF401BB842F7D9D7E7616BB06820F484
:100D700040700843B06000202168CA0706D062684E
:100D8000336823EA124392B21A4332608A0712D4BC
:100D90008A0619D48A051FD44A0529D40A0533D4F2
:100DA0004A063DD40A0649D4CA0555D4CA0661D4B8
:100DB0000A0471D479E0A268336823EA124392B23C
:100DC0001A4332608A06E5D52269336823F440630A
:100DD0001A4332608A05DFD5226A4FF6FF733768FF
:100DE00063EA02033B4043EA024232604A05D5D53A
:100DF000626A4FF6FF73376863EA02033B4043EAD7
:100E0000024232600A05CBD5A26A4FF6FF733768FB
:100E100063EA02033B4043EA024232604A06C1D51C
:100E200062696FF47F23376863EA121302F47F422A
:100E30003B4043EA021232600A06B5D5A2696FF45C
:100E40007F23376863EA121302F47F423B4043EA90
:100E500002123260CA05A9D5E2696FF47F233768B0
:100E600063EA121302F47F423B4043EA021232600B
:100E7000CA069DD5E268336823F44073B2F5807FDB
:100E800043EA0203336002BF56F87C2C42F08072C2
:100E900046F87C2C0A0408D5226B336823F04043C3
:100EA000002A43EA0203336013D049040FD5E16AF4
:100EB000326822F04052B1F1005F42EA0102326032
:100EC00002BF56F87C1C41F4803146F87C1C01B00E
:100ED000F0BD56F87C2C42F0807246F87C2C490418
:100EE000F5D5E4E72DE9F04381B0002800F09080CB
:100EF00044F2000805460C46C5F60008D8F8000084
:100F000000F00700884215D2D8F8000020F0070052
:100F10002043C8F80000FFF749FE0646D8F8000055
:100F200000F00700A04205D0FFF740FE801B02281A
:100F3000F4D95BE028680827C5F60007810713D5B8
:100F4000A868396821F0F00108433860FFF72EFEE9
:100F5000064600BF3868C00305D4FFF727FE801B94
:100F60000228F7D942E02868410616D56869D7F803
:100F7000001121F00F0141EA1010C7F80001FFF73E
:100F800015FE0646D7F80001C00305D4FFF70EFE94
:100F9000801B0228F6D929E02868410712D5E868A5
:100FA000396821F4E06108433860FFF7FFFD064629
:100FB0003868800305D4FFF7F9FD801B0228F7D9B4
:100FC00014E02868010716D52869396821F46051B2
:100FD00041EAC0003860FFF7E9FD06463868400383
:100FE00008D4FFF7E3FD801B0228F7D9032001B0E6
:100FF000BDE8F0832868C0072AD068684FF0B04188
:1010000050B103285FD0022861D10968890306D452
:10101000012001B0BDE8F08309688907F8D5396877
:1010200021F0030108433860FFF7C0FD064641F296
:10103000883900BF3868696800F00C00B0EB810F98
:1010400006D0FFF7B3FD811B03204945F2D91BE011
:10105000D8F8000000F00700A04218D9D8F8000026
:1010600020F007002043C8F80000FFF79FFD054669
:10107000D8F8000000F00700A04208D0FFF796FD66
:10108000411B03200229F3D901B0BDE8F08300F031
:101090006DF839683C2202EA910143F28822C0F6D9
:1010A00000025158B0FBF1F040F21001C2F2000111
:1010B000086040F20800C2F20000006801B0BDE81C
:1010C000F043FFF79DBD09688901A1D5A7E709682D
:1010D00049059DD5A3E7000080B500F047F8082139
:1010E0003C22C5F60001096802EA910143F2882218
:1010F000C0F600025158B0FBF1F080BD80B500F0A1
:1011000035F8082143F2C823C5F60001C0F60003F4
:101110000A680968C1F3022153F821103C2303EA4D
:10112000920243F28823C0F600039A58B0FBF2F013
:10113000C84080BD80B500F019F8082143F2C823EB
:10114000C5F60001C0F600030A680968C1F3C221B0
:1011500053F821103C2303EA920243F28823C0F69D
:1011600000039A58B0FBF2F0C84080BD0C21C5F6D0
:10117000000151F8042C086812F00C0205D00C2A6A
:1011800017D100F00300012813D14FF0B0400368DD
:10119000006800F008001B0704D4E0B14FF0B04035
:1011A00000681FE0E0B14FF0B0400068C0F30310EA
:1011B00019E042F20040042AC0F2F4001FD0082ACD
:1011C0001CD14FF0B0421268D2025CBF44F600005E
:1011D000C0F2E81013E0D1F88800C0F3032002E069
:1011E000D1F88800002043F2E823002AC0F600036B
:1011F00053F82030184618BF002001E000200023DB
:1012000051F8042C02F00C020C2A18BF7047086831
:1012100042F2004CC0F2F40C00F00302022A0CD09F
:10122000032A09D14FF0B0421268D2025CBF44F6E3
:10123000000CC0F2E81C00E09C460A680B680968D4
:10124000012000EB5170C2F30621C3F3021201FB2F
:101250000CF10132B1FBF2F1B1FBF0F0704700008C
:101260002DE9F047002800F0B98240F2900A0446C8
:10127000C5F6000A5AF8880C00F00C085AF8840CDD
:1012800000F00309207880062CD42078C00700F0F5
:101290006381B8F1080F00F09280B8F10C0F08BF1D
:1012A000B9F1030F00F08B804FF0B0400168A268E5
:1012B00021F48011114301606768B7F5803F09D0C0
:1012C000B7F5041F40F024814FF0B0410A6842F4A2
:1012D00000120A60016841F480310160FFF766FC8A
:1012E000054623E1B8F1000F1DD0B8F10C0F08BF7F
:1012F000B9F1010F17D0216A4FF0B04630680029CC
:1013000000F0AC8040F001003060FFF74FFC054674
:101310003068800700F1B380FFF748FC411B0320D1
:101320000229F5D931E34FF0B0410868800703D5B1
:10133000206A002800F05282A06A096844F2000680
:10134000C5F60006090759BFDAF8041009094FF07D
:10135000B041096801F0F00188423DD93C2143F2D7
:10136000882201EA900043F2E821C0F60002C0F6AC
:1013700000010858DAF8781001F00F0152F8211036
:10138000B0FBF1F5FFF7A0FCB0F5007F40F09180D5
:101390004EF6BF20C0F22110854240F2B58049F2DE
:1013A0003F30C0F23420854240F25C814AF63F6013
:1013B000C0F2EB20854240F29080002759E14FF0C7
:1013C000B0400068800340F1C7806068002804BF17
:1013D0000120BDE8F087BFE04FF0B0410A6842F05D
:1013E00008020A600A6822F0F00202430A60616A99
:1013F0005AF88C2C22F47F4242EA012143F28822DF
:101400004AF88C1C3C21C0F6000201EA900043F22D
:10141000E821C0F600010858DAF8781001F00F0151
:1014200052F82110B0FBF1F5FFF74EFCB0F5007F4C
:1014300055D14EF6BF20C0F22110854266D949F23F
:101440003F30C0F23420854240F243814AF63F608B
:10145000C0F2EB20854255D9002741E120F0010080
:101460003060FFF7A3FB0546306880077FF50DAFBE
:10147000FFF79CFB411B03200229F5D985E24FF0C1
:10148000B040016841F0080101600168A26A21F0E2
:10149000F00111430160606A5AF88C1C21F47F410D
:1014A00041EA00204AF88C0C2078C0077FF4F1AEA6
:1014B00052E04CF6BF70C0F26A00854224D945F66E
:1014C0003F50C0F2C600854240F2CC8046F23F60F9
:1014D000C0F2031085423FF670AF0220C3E04CF625
:1014E000BF70C0F26A00854210D945F63F50C0F285
:1014F000C600854240F2ED8046F23F60C0F2031024
:101500008542A9D80220E5E00020ACE00020E1E01F
:101510004FF0B046306820F480303060306820F4FE
:1015200000103060FFF742FB05465FB14FF0B04658
:101530003068800310D4FFF739FB411B0320642976
:10154000F6D922E23068800306D5FFF72FFB411B56
:1015500003206429F6D918E22078800732D5B8F143
:10156000040F1BD0B8F10C0F08BFB9F1020F15D052
:1015700021694FF0B0463068002963D040F4807094
:101580003060FFF713FB05463068400511D4FFF7C4
:101590000DFB411B03200229F6D9F6E14FF0B040C4
:1015A0000068400505D52069002804BF0120BDE87A
:1015B000F08760695AF88C1C21F0FE4141EA006016
:1015C0004AF88C0C2078000740F1E480A069DAF832
:1015D000041018B3E06901F01002904200F0C180DD
:1015E00001F00302022A00F0F980C90700F0B2807E
:1015F000DAF8040020F00100CAF80400FFF7D6FA78
:10160000054600BFDAF80400800740F1A280FFF72A
:10161000CDFA411B03201129F4D9B6E121F00100D4
:10162000CAF80400FFF7C2FA054600BFDAF8040062
:10163000800740F1AF80FFF7B9FA411B0320112961
:10164000F4D9A2E120F480703060FFF7AFFA0546CC
:1016500030684005B6D5FFF7A9FA411B03200229DF
:10166000F6D992E1012043F27C21C0F6000151F845
:101670002070306820F0070038433060FFF796FA9A
:101680000546306800F00700B8420CD0FFF78EFA2C
:10169000401B022884BF0120BDE8F087306800F0BD
:1016A0000700B842F2D14FF0B040016841F00801A4
:1016B00001600168A26A21F0F00111430160606AD3
:1016C0005AF88C1C21F47F4141EA00204AF88C0C26
:1016D00021E0012043F27C21C0F6000151F8207086
:1016E000306820F0070038433060FFF75FFA0546A6
:1016F000306800F00700B8420DD000BFFFF756FA7F
:10170000401B022884BF0120BDE8F087306800F04C
:101710000700B842F2D1FFF729FD5AF8881C3C2295
:1017200002EA910143F28822C0F600025158B0FB50
:10173000F1F040F21001C2F20001086040F208002E
:10174000C2F200000068FFF75BFA002840F01D813C
:101750009BE5E069DAF8041021F010010843CAF8AB
:101760000400DAF8040040F00100CAF80400FFF7B2
:101770001DFA0546DAF8040080070BD4FFF716FAC5
:10178000401B112884BF0320BDE8F087DAF804006D
:101790008007F3D52078400723D4E06A002800F0C2
:1017A000F380B8F10C0F54D1012817D05AF8840CEB
:1017B000216B00F003028A4210D1616B00F07002CD
:1017C0008A420BD1A16B00F4FE42B2EB012F05D18E
:1017D000616C00F06040884200F0D6800120BDE8D6
:1017E000F087DAF87003C0050FD4FFF775FAFFF73A
:1017F000DDF90546DAF87003C00506D4FFF7D6F91F
:10180000411B03200229F5D9BFE0E068002853D02E
:10181000852801D0052805D1DAF8000040F0040041
:10182000CAF80000FFF7C2F90546DAF8000041F2F5
:10183000883640F00100CAF8000000BFDAF8000066
:1018400080071BD4FFF7B2F9411B0320B142F5D941
:101850009BE04FF0B0460228316821F08071316082
:1018600043D1FFF7A3F90546306880015ED5FFF745
:101870009DF9411B03200A29F6D986E0E06840F073
:101880000400852840F08380FFF790F90546DAF8D8
:10189000000041F2883640F08000CAF8000000BF26
:1018A000DAF8000000053FF578AFFFF77FF9411B3C
:1018B0000320B142F4D968E0FFF778F90646DAF878
:1018C000000041F2883920F08000CAF8000000BF13
:1018D000DAF800000705FFF769F90546002F6DD516
:1018E000A91B03204945F3D94FE05AF8840C4FF661
:1018F000FF71CEF6FE6120F003004AF8840C5AF81E
:10190000840C08404AF8840CFFF750F9044630680C
:10191000800139D5FFF74AF9011B03200A2988BF46
:10192000BDE8F08730688001F4D42DE048F28C01E6
:101930005AF8840C04F13007C1F2C11108408ECF6F
:10194000D4E910650843104340EA0320384330438C
:1019500028434FF0B0454AF8840C286840F0807066
:1019600028605AF8840C40F080504AF8840CFFF745
:101970001DF904462868800106D4FFF717F9011BFA
:1019800003200A29F6D900E00020BDE8F087FFF720
:101990000DF90546DAF8000041F2883620F08000A3
:1019A000CAF80000DAF8000000057FF5F6AEFFF790
:1019B000FDF8411B0320B142F4D9E6E7DAF8000054
:1019C00041F2883620F00100CAF80000DAF8000081
:1019D00080077FF5E2AEFFF7E9F8411B0320B14233
:1019E000F4D9D2E7002804BF01207047B0B50446FF
:1019F000406A20B10020206104F1140005E0606815
:101A0000B0F5827F03D004F11C0000210160206E3C
:101A100020B90020E065204600F06EF80220206624
:101A20002068016821F040010160D4F80CE0BEF5A7
:101A3000E06F05D94FF0000CBEF5706F03D104E0E4
:101A40004FF4805C01D00021A162D4E90112D4E9F5
:101A5000043501F4827102F40442114403F00202DD
:101A6000114405F001021144A26902F40073194403
:101A7000E36903F038031944236A03F0800319442F
:101A8000A36A03F40055B3F5005F41EA0501016064
:101A90000FD1216B022905D059B9BEF5E06F06D9E7
:101AA00002212163016841F40061016001E001212C
:101AB00021630421656BB3F5005F01EA12410EF466
:101AC000706242EA0C0241EA0201626A02F010020C
:101AD00041EA020105F0080241EA0201416004BF47
:101AE000A18D0161C16921F40061C1610020012162
:101AF00060662166B0BD000080B586B0002143F26B
:101B000000020491CDE90211CDE90011C4F20102F5
:101B10000068904201D006B080BD4C20C5F60000A0
:101B2000426942F480524261426902F48052059255
:101B3000059A026842F001020260006800F00100AC
:101B400005900598052004900220CDE90211694610
:101B50000190E02000904FF09040FEF73FFF06B06C
:101B600080BD00002DE9F04782B00446C06D012819
:101B700004D10226304602B0BDE8F08701201D46A0
:101B800017468A46E065FFF711F8D4E9002381463D
:101B9000206ED2F800E0D2F804C0012840F0A18005
:101BA000BAF1000F4FF0010618BF002F00F0A0801F
:101BB000002D00F09D80206E04281CBF05202066AB
:101BC00000206066A4F846502764A4F84450C4F886
:101BD00038A0C4E91300A587E587A06AB0F5005FC7
:101BE00007D1106820F400501060106840F40050D5
:101BF0001060E7685068DDF8288020F48051B7F560
:101C0000E06F0E4698BF40F48056012D88BF0E4607
:101C10005660691E1068B1FA81F1490940065EBF3D
:101C2000106840F040001060B3FA83F0B7F5E06F41
:101C30004FEA501040EA010067D938B13AF8020B78
:101C4000D060C4F838A0E08F0138E0875FEA4E70BA
:101C500068D41CF0080065D0012608F1010500BF1A
:101C6000E08F20B9B4F84600002800F07C8120689D
:101C7000816889071AD5E18F012E17D1B1B1A16B07
:101C800031F8022BC260E28F013AE287A163E18F53
:101C900059B9A16AB1F5005F07D1016841F400713B
:101CA0000160016841F48051016000268168C90724
:101CB0000DD0B4F8461051B1C068216C012621F84E
:101CC000020B2164B4F846000138A4F84600FEF780
:101CD0006DFF002DC4D0A0EB09004045C0D3032602
:101CE00006E0B3F5827F4FF0020608BF042807D054
:101CF0000020E06501202066304602B0BDE8F08794
:101D0000A06800283FF44CAFF2E74FF6FE750028BC
:101D100055D0E08F022846D33AF8020BD0604FF638
:101D2000FE7247E0012608F1010500BFE08F20B9EF
:101D3000B4F84600002800F0168120688168890701
:101D400016D5E18F012E13D191B1A16B31F8022B81
:101D5000C260E28F013AE287A163E18F39B9A16ADB
:101D6000B1F5005F02BF016841F4805101600026B7
:101D70008168C9070DD0B4F8461051B1C068216C14
:101D8000012621F8020B2164B4F846000138A4F8BA
:101D90004600FEF70BFF002DC8D0A0EB0900404520
:101DA000C4D30326A4E79AF8000010736A1CA06B42
:101DB00000F1010AC4F838A0E08F1044E0875FEA20
:101DC0004E706BD41CF0080068D0012708F10106A2
:101DD000E08F20B9B4F84600002800F0C4802068E5
:101DE0008168890726D5E18F012F23D111B3A16B1B
:101DF000E28F022A05D331F8022BC2604FF6FE7043
:101E000004E009780173681CA16B0131E28F104472
:101E1000E087A163E08F60B9A06AB0F5005F08D1E8
:101E20002068016841F400710160016841F480514B
:101E30000160002720688168C90725D0B4F84610E2
:101E400011B3B4F84610022912D3C168226C22F8EB
:101E5000021BB4F846100239A4F846102264B4F804
:101E6000461001290FD8416841F4805141600AE0D1
:101E7000007B216C0870206C01302064B4F84600AF
:101E80000138A4F846000127FEF790FE002E9FD0EF
:101E9000A0EB090040459BD3032629E7012708F161
:101EA000010600BFE08F18B9B4F8460000285AD0E8
:101EB00020688168890722D5E18F012F1FD1F1B1F8
:101EC000A16BE28F012A05D931F8022BC2604FF6CF
:101ED000FE7004E009780173681CA16B0131E28F88
:101EE0001044E087A163E08F40B9A06AB0F5005FBD
:101EF00004D12068016841F4805101600027206806
:101F00008168C90725D0B4F8461011B3B4F846105B
:101F1000012912D9C168226C22F8021BB4F84610BC
:101F20000239A4F846102264B4F8461001299EBF75
:101F3000416841F4805141600AE0007B216C0870E7
:101F4000206C01302064B4F846000138A4F8460043
:101F50000127FEF72BFE002EA4D0A0EB0900404580
:101F6000A0D30326C4E6A06AB0F5005F0ED12046D8
:101F7000012101224346CDF8009000F047FB58B103
:101F8000606E032640F002006066B1E6206881685A
:101F9000C9060AD4002610E0E1682068B1F5706F28
:101FA00032D1C1688168C906F4D5616E012641F05D
:101FB000020161664FF6EF71816020464FF4C05117
:101FC00000224346CDF8009000F082FAA0B92046E6
:101FD000802100224346CDF8009000F017FB58B94D
:101FE00020464FF4C06100224346CDF8009000F037
:101FF0006FFA00283FF47CAE606E012640F02000AE
:1020000060662020606673E6017B216B0229BED1E9
:102010002046012101224346CDF8009000F0F6FA57
:102020000028ADD12068017B8168C906B2D5BCE724
:10203000411E0020B0EB116F1CBF012070474EF213
:102040001002F023CEF2000251604EF62351CEF280
:1020500000010B700721906011607047D0F880106C
:10206000012902BF0221084670472421C0F88410CC
:1020700002681368116821F0010123F00053116018
:102080000021416613602022C0F88010C0F884202F
:1020900008467047D0F88020012A02BF0221084676
:1020A0007047B0B524224FF0010EC0F88420C0F86C
:1020B00080E00268D2F800C0136823F001031360C7
:1020C000936823F0606319439160416EC9B19168D0
:1020D00043F2583E43F25035C0F6000EC0F60005FC
:1020E000C1F342611EF80130695CC900B1FBF3F134
:1020F00093685B0F1EF80340EB5CDB00B3FBF4FE60
:1021000000E00121A0F86810A0F86AE0C2F800C061
:1021100000212022C0F88010C0F88420BDE8B04023
:1021200008467047D0F88020012A02BF02210846E5
:102130007047B0B524224FF0010EC0F88420C0F8DB
:1021400080E00268D2F800C0136823F00103136036
:10215000936823F0604319439160416EC9B191685F
:1021600043F2583E43F25035C0F6000EC0F600056B
:10217000C1F342611EF80130695CC900B1FBF3F1A3
:1021800093685B0F1EF80340EB5CDB00B3FBF4FECF
:1021900000E00121A0F86810A0F86AE0C2F800C0D1
:1021A00000212022C0F88010C0F88420BDE8B04093
:1021B0000846704710B5B0B10446D0F8840028B97D
:1021C0000020C4F88000204600F026F82420C4F83F
:1021D00084002068016821F001010160204600F0C0
:1021E000B1FB012801D1012010BDA06A10B1204629
:1021F00000F0A2FA2068416821F4904141608168B2
:1022000021F02A018160016841F00101016020464E
:10221000BDE8104000F008BB10B594B004460020A3
:1022200038211290CDE91000CDE90E006846FDF787
:10223000EAFF44F200412068C4F20001884201D064
:1022400014B010BD4FF44020022402906846009460
:10225000FEF74CFD002818BFFEF7BAFB4C20C5F670
:102260000000C16841F40031C160C16801F400316F
:1022700013911399016841F0010101600EA90068F2
:1022800000F0010013901398072012900020119085
:10229000CDE90F400C200E904FF09040FEF79EFBD2
:1022A00014B010BD2DE9F04782B00446D0F8840088
:1022B00020280AD10D460120002966D01646002AA2
:1022C00063D0D4F88000012803D1022002B0BDE819
:1022D000F0874FF0000A01209946C4F88CA0C4F89A
:1022E00080002120C4F88400FEF760FCA4F856604A
:1022F000A4F854608046A068B0F5805F0BD12769D0
:102300000026002F0CBF2E462F46C4F880A0B4F83C
:10231000560088B928E02F460026C4F880A0B4F8FB
:10232000560048B920E000BFB4F856000138A4F8C0
:102330005600B4F85600B8B120468021002243462A
:10234000CDF8009000F036FCB8B92FB117F8011B9A
:1023500020688162E8E700BF36F8021B206800278A
:102360006FF35F218162DFE7204640210022434670
:10237000CDF8009000F01EFC18B1032002B0BDE8BB
:10238000F0872020C4F88400002002B0BDE8F08768
:10239000FEE70000B0B586B04C2000240022049473
:1023A000C5F60000016841F00101016013210068D9
:1023B00000F00100059005984FF09040FEF7F0FB0B
:1023C0004FF090404FF4807101220125FEF7E8FBA9
:1023D00040F213100394CDE90154694600904FF088
:1023E0009040FEF7FBFA06B0B0BD000080B540F2A9
:1023F000204043F200034FF482714FF4007C00222E
:102400004FF4E06EC2F20000C4F20103C0E90031F3
:1024100008210723C0E9022EC0E90422C0E906C250
:10242000C0E90822C0E90A23C0E90C21FFF7DAFA63
:10243000002814BFBDE8804080BDFEF7C9BA000087
:1024400080B540F2884044F200414FF00C0C00226D
:102450004FF4E133C2F20000C4F20001C0E90822E7
:102460008262C0E90013C0E90222C0E9042CC0E97D
:102470000622FFF79FFE002818BFFEF7A9FA40F2D8
:1024800088400021C2F20000FFF74CFE002818BF70
:10249000FEF79EFA40F288400021C2F20000FFF7EA
:1024A000F9FD002818BFFEF793FA40F28840C2F207
:1024B0000000FFF7D3FD002814BFBDE8804080BDB9
:1024C000FEF786BAFEE70000FEE700007047000056
:1024D0002DE9F04381B0089C984616460F46814688
:1024E000FEF764FB201A00EB0804FEF75FFB0546CD
:1024F00040F210002321C2F2000000684843000DA2
:1025000060430090D9F8001088683840B04203D189
:10251000002001B0BDE8F083B7F5C06F08BF002E02
:102520002DD018F1010015D0FEF740FB401BA04252
:102530003DD20098009901390028009108BF044657
:10254000D9F8000080683840B042EDD1002001B0D9
:10255000BDE8F08388683840B042D9D088683840F8
:10256000B042D5D088683840B042D1D0886800EAFF
:1025700007020020B242EDD101B0BDE8F08308F1BE
:10258000010600BF087B6EB1FEF710FB401BA042A6
:102590000DD20098009901390028009108BF044627
:1025A000D9F80010886810F4C06FEBD1B0E7D9F803
:1025B0000000416821F0E0014160D9F80410B1F554
:1025C000827F0BD1D9F80810B1F5004F02D0B1F5D8
:1025D000806F03D1016821F040010160D9F8281013
:1025E000B1F5005F07D1016821F400510160016875
:1025F00041F4005101600020C9F85C000120C9F8D5
:102600006000032001B0BDE8F08300002DE9F04335
:1026100081B0089C984615460E468146FEF7C6FADC
:10262000201A00EB0804FEF7C1FA074640F210003A
:10263000C2F200000068C0F3CB3060430090D9F8CC
:10264000000081683140891BB1FA81F14909A94232
:102650003AD018F1010117D0FEF7A8FAC01BA0422A
:1026600036D20098009901390028009108BF04462D
:10267000D9F8000080683040801BB0FA80F0400933
:10268000A842E9D120E000BF81683140891BB1FA3E
:1026900081F14909A94217D081683140891BB1FAFB
:1026A00081F14909A9420FD081683140891BB1FAF3
:1026B00081F14909A94207D081683140891BB1FAEB
:1026C00081F14909A942DFD1002001B0BDE8F083C2
:1026D000D9F80000416821F0E0014160D9F8041008
:1026E000B1F5827F0BD1D9F80810B1F5004F02D0B7
:1026F000B1F5806F03D1016821F040010160D9F884
:102700002810B1F5005F07D1016821F40051016084
:10271000016841F4005101600020C9F85C0001200B
:10272000C9F86000032001B0BDE8F08370470000E5
:10273000FEF742BA70470000816ACA070DD18A07C6
:1027400016D44A071FD40A0728D4CA0631D48A06E9
:102750003AD480B54A0659D542E002685368D0F8A9
:102760002CC023F4003343EA0C0353608A07E8D5F6
:1027700002685368D0F830C023F4803343EA0C0376
:1027800053604A07DFD502685368D0F834C023F499
:10279000802343EA0C0353600A07D6D502685368C6
:1027A000D0F838C023F4004343EA0C035360CA0650
:1027B000CDD502689368D0F83CC023F4805343EA37
:1027C0000C0393608A06C4D502689368D0F840C0B1
:1027D00023F4005343EA0C03936080B54A0615D5F1
:1027E000D0F800E0DEF804C0436C2CF48012B3F59E
:1027F000801F42EA0302CEF8042007D1DEF804204D
:10280000836C22F4C0021A43CEF804200906BDE806
:10281000804058BF704701684A68C06C22F40022AB
:102820001043486070470000B0B504460020C4F86B
:102830008C00FEF7BBF9054620680168090727D51B
:10284000C169890224D4FEF7B1F9421B2068B2F1B4
:10285000007F016853D2490744BFC1695FEA015153
:10286000EED54FF400610162016821F4D07101607E
:10287000816821F0010181602020C4F88400C4F83F
:102880008800C4F88C0003200021C4F88010B0BD7B
:102890000168490728D500BFC069400224D4FEF76B
:1028A00085F9421B2068B2F1007F016838D24907E0
:1028B00044BFC1695FEA0151EED54FF40061016286
:1028C000016821F4D0710160816821F0010181600B
:1028D0002020C4F88400C4F88800C4F88C000320C9
:1028E0000021C4F88010B0BD2020C4F88400C4F8D2
:1028F00088000020E0660021C4F88010B0BD21F4FB
:10290000D0710160816821F0010181602020C4F84C
:102910008400C4F8880003200021C4F88010B0BDF2
:1029200021F4D0710160816821F0010181602020D3
:10293000C4F88400C4F8880003200021C4F8801083
:10294000B0BD0000F0B581B00446C7690368806877
:1029500046F6F31648F2000ED4E90421CCF6FF76D1
:10296000C4F2000E1D68734540EA02004FF2FF42B8
:1029700040EA010006EA0506C1F2FF1240EA07003C
:1029800040EA060018605868E16820F4405040EAC8
:1029900001005860A0691CBF216A08439968114072
:1029A00008439860D86AD4F824C020F00F0040EAA9
:1029B0000C00D86244F20040C4F20000834215D0FB
:1029C000734523D043F60000C4F2010083422BD1AB
:1029D00088204FF44041C5F60000006861F39F0075
:1029E00070A101EB8000A0F540201BE0882043F29D
:1029F0004031C5F60000C0F60001006800F00C0090
:102A000000F540200844A0F540200BE0882043F268
:102A10004031C5F60000C0F600010068C0F3812017
:102A200001EB8000026800E0102242F20040012128
:102A30007345C0F2F40011D0B7F5004F1ED1082A3B
:102A400000F2A680DFE802F0055967A45FA4A4A401
:102A50006500FEF753FB002852D158E0082A00F227
:102A60009780DFE802F0059522951A95959520004C
:102A7000FEF744FBA8B1D4F824C016E0082A00F2FF
:102A80008780DFE802F005637185698585856F00C1
:102A9000FEF734FB00285CD162E0FEF767FB0028FC
:102AA000E9D1002174E04FF4004043F2283162681C
:102AB000C0F6000131F81C1002EB4203B0FBF1F04C
:102AC0000121984264D31303984261D8010E000299
:102AD000002310EB520041F10001FDF749FB4FF6D6
:102AE000FF42A0F54071C0F20F02914203D8216865
:102AF000C86000214CE001214AE0FEF71BFB30B129
:102B0000D4F824C007E0FEF731FB0028F8D10021FB
:102B10003EE04FF4004043F22831C0F6000131F8A6
:102B20001C10B0FBF1F061684A0802EB4000B0FBFA
:102B3000F1F04FF6F071014006D0C0F342000843B7
:102B40002168C860002123E0012121E0FEF7F2FAAC
:102B500030B1D4F824C007E0FEF708FB0028F8D114
:102B6000002115E04FF4004043F22831C0F6000187
:102B700031F81C10B0FBF1F0616800EB5100B0FBC4
:102B8000F1F080B2102831BF01212168C860002116
:102B90000020C4E91C004FF00110A066084601B0F7
:102BA000F0BD00BF010000000400000002000000B2
:102BB000080000002DE9F041044600680E46C16996
:102BC0003140891BB1FA81F1490991422BD1DDF8DD
:102BD0001880B8F1000F29D0154618F101012AD14B
:102BE000C1693140891BB1FA81F14909A9421CBF71
:102BF0000020BDE8F081C1693140891BB1FA81F143
:102C00004909A9420FD1C1693140891BB1FA81F14B
:102C10004909A94207D1C1693140891BB1FA81F143
:102C20004909A942DCD00020BDE8F081FDF7BEFFD4
:102C30002068016832E01F460BE000BFC0693040E9
:102C4000801BB0FA80F04009A8421CBF0020BDE8FC
:102C5000F081FDF7ABFFC21B2068424501681DD81B
:102C6000490744BFC1695FEA0151E7D54FF40061EC
:102C70000162016821F4D0710160816821F00101D5
:102C8000816020200021C4F88400C4F88800C4F8C2
:102C90008010C4F88C000320BDE8F08121F4D071CD
:102CA0000160816821F00101816020200021C4F8C9
:102CB0008400C4F88010C4F888000320BDE8F081C7
:102CC000FEE7000080B582B0019040F2884001A983
:102CD00001224FF6FF73C2F20000FFF7E3FA0198FA
:102CE00002B080BD9AB0FDF775FF08AC2821201D09
:102CF000FDF789FA40F2004000250122CDE9065592
:102D0000CDE90455CDE90255C5F60000016862F32E
:102D10004A2101604021006800F4C06001900198E0
:102D20004FF0404019904FF4003017905420169007
:102D3000302015900220CDE913000D914FF48071E1
:102D40000C9108904FF0007018902046FEF788FA1A
:102D500018B1EFF3108072B6FEE703200221039052
:102D60004F20029002A8CDE90655CDE90455FEF7A3
:102D7000B9F820B1EFF3108072B600BFFEE7FFF79D
:102D800009FBFFF75DFBFFF731FB00BF4FF0904001
:102D90000121FDF7FDFE4FF090400221FDF7F8FE06
:102DA000FDF7C4FAF2E700000FB4054B10B503A914
:102DB000044A029800F018F810BC5DF814FB0000FB
:102DC000C52C00080400002002E008C8121F08C13A
:102DD000002AFAD170477047002001E001C1121F9C
:102DE000002AFBD1704700002DE9FF4F8DB00F4640
:102DF0000546002606E025280BD0DDE90F12904796
:102E00006D1C761C28780028F5D111B03046BDE83D
:102E1000F08F0024A246A1460122EC4900E00443C1
:102E200015F8013F203B02FA03F00842F7D1287859
:102E30002A2810D06FF02F022878A0F1300109293C
:102E400014D80AEB8A0102EB410144F0020400EBC2
:102E5000010A6D1CF0E701CF5FEA000A03D544F4D4
:102E60000054CAF1000A44F002046D1C28782E2890
:102E700017D115F8010F44F004042A280ED06FF082
:102E80002F022878A0F1300109290AD809EB89011D
:102E900002EB410100EB01096D1CF2E757F8049BBE
:102EA0006D1C28786C280FD006DC4C2817D06828B9
:102EB0000DD06A2814D104E0742810D07A280FD1DC
:102EC0000DE044F400140AE044F4801401E044F4FA
:102ED00040146978814202D104F580146D1C6D1C88
:102EE0002A786E2A1FD00CDC632A31D004DC002A39
:102EF0008BD0582A11D1A3E0642A68D0692A0CD15A
:102F000065E0732A2ED004DC6F2A73D0702A04D1B6
:102F10009BE0752A6FD0782A6ED01046DDE90F123B
:102F20009047761C50E1C4F30250022806D00328D3
:102F300009D0042801CF09D0066045E101CFF1177F
:102F4000C0E9006140E101CF06803DE106703BE150
:102F500017F8040B8DF8000000208DF80100EB46F7
:102F6000012003E057F804BB4FF0FF3061074FF03A
:102F7000000102D40DE008F10101884649450FDA4D
:102F80008045F8DB1BF808100029F4D108E008F1AF
:102F9000010188468142FADB1BF808100029F6D1AE
:102FA000DDE90F23AAEB08008146214600F036F93F
:102FB000304400EB080604E0DDE90F121BF8010BBA
:102FC0009047B8F10108F7D221464846F7E00A21B8
:102FD000C4F302534FF0000B0891022B04D001CF31
:102FE000C117032B09D00AE0FF1D27F00707F7E8F8
:102FF000020108E032E01FE020E000B2C117042B1C
:1030000001D140B2C117031E71F1000307DA4FF07E
:10301000000CD0EB0C006CEB01012D2302E023052A
:1030200004D52B238DF82430012303E0E30701D0DE
:103030002023F7E7984658E00A2110E010210EE01F
:1030400010204FF0000B08900CE010214FF0000B07
:1030500044F004044FF00809089103E008214FF000
:10306000000B0891C4F30253022B04D001CF0021BE
:10307000032B06D006E0FF1D27F00707F7E8020143
:1030800003E080B2042B00D1C0B24FF00008230748
:103090002BD5702A07D0DDF820C08CF0100C5CEA2C
:1030A0000B0C05D00EE040238DF82430012308E0FE
:1030B00050EA010306D030238DF824308DF8252006
:1030C00002239846DDF820C08CF0080C5CEA0B0C5B
:1030D0000BD150EA010301D1630706D530238DF8E7
:1030E00024304FF00108A9F10109582A04D038A270
:1030F0000B9208AA0A920BE03AA2F9E75B46089AFB
:10310000FDF736F80B9B9B5C0A9A521E0A921370CD
:1031100050EA0102F2D10A98ADEB000000F1200B59
:10312000600702D524F4803401E04FF00109D9454D
:1031300002DDA9EB0B0000E0002000EB0B01414495
:103140000890AAEB010AE00306D4DDE90F2321462B
:10315000504600F063F806444FF0000908E009A962
:1031600011F80900DDE90F12904709F10109761CF9
:10317000C145F4DBE0030CD5DDE90F2321465046C1
:1031800000F04CF8064404E0DDE90F1230209047CF
:10319000761C0899481E08900029F5DC08E00A987A
:1031A0000A990078491C0A91DDE90F129047761CB4
:1031B000BBF10001ABF1010BF1DC21465046DDE92A
:1031C0000F2300F019F806446D1C1BE609280100C6
:1031D000303132333435363738396162636465668D
:1031E000000000003031323334353637383941424F
:1031F00043444546000000002DE9F0410446002507
:103200001E461746880404D405E039462020B047FE
:103210006D1C641EF9D52846BDE8F0812DE9F0410A
:10322000044600251E469046C80301D5302700E01D
:103230002027880404D505E041463846B0476D1C78
:10324000641EF9D52846BDE8F08100000149FFF76A
:1032500039BD00000400002010B5044601E0FFF76E
:1032600031FD14F8010B04490028F8D1BDE81040E5
:103270000A20FFF727BD0000040000200000000026
:103280000100000002000000010000000300000037
:103290000500000001000000010000000600000021
:1032A0000A000000200000000200000004000000EE
:1032B0000800000010000000400000008000000036
:1032C00000010000000200000000000000000000FB
:1032D00000000000000000000100000002000000EB
:1032E0000300000004000000A0860100400D030060
:1032F000801A060000350C0040420F0080841E003A
:1033000000093D0000127A000024F40000366E012E
:103310000048E801006CDC02000000000000000032
:103320000000000000000000010002000400060090
:1033300008000A000C00100020004000800000017E
:10334000000000000400000002000000080000006F
:103350000101010307010000080402040801010142
:103360000D0A2D2D2D2D2D2D2D2D2D2D2D2D2D2DD0
:103370002D2D2D2D2D2D2D2D2D2D466C617368207D
:1033800054657374202564202D2D2D2D2D2D2D2D6C
:103390002D2D2D2D2D2D2D2D2D2D2D2D2D2D2D2D5D
:1033A0000D0A0052444944203A2025303258202545
:1033B00030325820253032580D0A004572726F7233
:1033C0005F436F756E74203A2025640D0A000D0A64
:1033D0002D2D2D2D2D2D2D2D2D2D2D2D2D2D2D2D1D
:1033E0002D2D2D2D2D2D2D2D436F6D70617265208E
:1033F000446174612D2D2D2D2D2D2D2D2D2D2D2D37
:103400002D2D2D2D2D2D2D2D2D2D2D2D0D000D0A7C
:103410002D2D2D2D2D2D2D2D2D2D2D2D2D2D2D2DDC
:103420002D2D2D2D2D2D2D2D5265616420466C6185
:1034300073682D2D2D2D2D2D2D2D2D2D2D2D2D2D3B
:103440002D2D2D2D2D2D2D2D2D2D0D0025303258CE
:1034500000307800783400080000002018000000D8
:10346000C82D00089034000818000020080900004A
:10347000D82D00080000000000000000000000003F
:10348000100000000100000000093D0000000000E5
:0400000508000139B5
:00000001FF
